:020000040800F2
:100000000000022081400008D93F0008E13F0008BD
:10001000E93F0008F13F0008F93F00080000000038
:10002000000000000000000000000000413A00084D
:100030000140000800000000913C00080F4000084B
:10004000D1400008D1400008D1400008D14000084C
:10005000D1400008D1400008D1400008D14000083C
:10006000D1400008D1400008D1400008D14000082C
:10007000D1400008D1400008D1400008D14000081C
:10008000D1400008D1400008D1400008D14000080C
:10009000D1400008D1400008D1400008D1400008FC
:1000A000D1400008D1400008D1400008D1400008EC
:1000B000D1400008D1400008D1400008D1400008DC
:1000C000D1400008D1400008D1400008D1400008CC
:1000D000D1400008D1400008D1400008D1400008BC
:1000E000D1400008D1400008D1400008D1400008AC
:1000F000D1400008D1400008D1400008D14000089C
:10010000D1400008D1400008D1400008D14000088B
:10011000D1400008D1400008D1400008D14000087B
:10012000D1400008D1400008D1400008D14000086B
:10013000D1400008D1400008D1400008D14000085B
:10014000D1400008D1400008D1400008D14000084B
:10015000D1400008D1400008D1400008D14000083B
:10016000D1400008D1400008D1400008D14000082B
:10017000D1400008D1400008D14000080000000034
:08018000D1400008D140000845
:1001900053B94AB9002908BF00281CBF4FF0FF31EE
:1001A0004FF0FF3000F00CB8ADF1080C6DE904CE53
:1001B00003F08FFFDDF804E0DDE9022304B07047AF
:1001C000704700BF830730B547D0541E002A3ED089
:1001D000CAB2034601E0013C39D303F8012B9D0765
:1001E000F9D1032C2CD9CDB205EB05250F2C05EB4D
:1001F000054535D9A4F1100222F00F0C03F1100EC1
:10020000E6444FEA121C1A46156055609560D560A9
:1002100010327245F8D10CF1010214F00C0F03EB0F
:10022000021204F00F0C13D0ACF1040323F003030B
:100230000433134442F8045B9A42FBD10CF00304EC
:100240002CB1C9B21C4403F8011B9C42FBD130BD48
:1002500064461346002CF4D1F9E703461446C0E780
:100260001A46A446E0E700BF70B50F4B0F4DAB42F6
:10027000A3EB050607D0B610002455F8043B013463
:100280009847A642F9D804F075F8094D094B5E1B52
:10029000AB424FEAA60606D0002455F8043B0134D1
:1002A0009847A642F9D870BDEC430008EC4300081B
:1002B000EC430008F0430008844641EA000313F0D1
:1002C00003036DD1403A41D351F8043B40F8043B5D
:1002D00051F8043B40F8043B51F8043B40F8043B20
:1002E00051F8043B40F8043B51F8043B40F8043B10
:1002F00051F8043B40F8043B51F8043B40F8043B00
:1003000051F8043B40F8043B51F8043B40F8043BEF
:1003100051F8043B40F8043B51F8043B40F8043BDF
:1003200051F8043B40F8043B51F8043B40F8043BCF
:1003300051F8043B40F8043B51F8043B40F8043BBF
:1003400051F8043B40F8043B403ABDD2303211D35F
:1003500051F8043B40F8043B51F8043B40F8043B9F
:1003600051F8043B40F8043B51F8043B40F8043B8F
:10037000103AEDD20C3205D351F8043B40F8043B5F
:10038000043AF9D2043208D0D2071CBF11F8013B5D
:1003900000F8013B01D30B8803806046704700BF23
:1003A000082A13D38B078DD010F003038AD0C3F132
:1003B0000403D21ADB071CBF11F8013B00F8013B14
:1003C00080D331F8023B20F8023B7BE7043AD9D3D3
:1003D000013A11F8013B00F8013BF9D20B780370A8
:1003E0004B7843708B7883706046704710B5054C2E
:1003F000237833B9044B13B10448AFF300800123D1
:10040000237010BD1000002000000000744300089D
:1004100008B5034B1BB103490348AFF3008008BD87
:1004200000000000140000207443000880B400AFF6
:10043000064BD3F88830054A43F47003C2F888307D
:1004400000BFBD465DF8047B704700BF00ED00E0D3
:1004500080B586B000AF78607B68002B01D10123A6
:1004600067E27B681B6803F00103002B75D0884BA3
:100470009B6803F00C03042B0CD0854B9B6803F0A6
:100480000C03082B12D1824B5B6803F48003B3F595
:10049000800F0BD17E4B1B6803F40033002B5BD025
:1004A0007B685B68002B57D1012342E27B685B6865
:1004B000B3F5803F06D1764B1B68754A43F4803311
:1004C00013601DE07B685B68B3F5A02F0CD1704B07
:1004D0001B686F4A43F4802313606D4B1B686C4AA2
:1004E00043F4803313600BE0694B1B68684A23F4C4
:1004F00080331360664B1B68654A23F480231360C6
:100500007B685B68002B13D000F0C8FE386108E000
:1005100000F0C4FE02463B69D31A642B01D90323C1
:1005200007E25B4B1B6803F40033002BF0D014E0B0
:1005300000F0B4FE386108E000F0B0FE02463B690E
:10054000D31A642B01D90323F3E1514B1B6803F445
:100550000033002BF0D100E000BF7B681B6803F084
:100560000203002B63D04A4B9B6803F00C03002B63
:100570000BD0474B9B6803F00C03082B1CD1444B5A
:100580005B6803F48003002B16D1414B1B6803F01A
:100590000203002B05D07B68DB68012B01D001230F
:1005A000C7E13B4B1B6823F0F8027B681B69DB004B
:1005B000374913430B603AE07B68DB68002B20D09F
:1005C000344B01221A6000F069FE386108E000F047
:1005D00065FE02463B69D31A022B01D90323A8E129
:1005E0002B4B1B6803F00203002BF0D0284B1B6839
:1005F00023F0F8027B681B69DB00254913430B607D
:1006000015E0244B00221A6000F048FE386108E033
:1006100000F044FE02463B69D31A022B01D90323A2
:1006200087E11B4B1B6803F00203002BF0D17B68B2
:100630001B6803F00803002B36D07B685B69002B36
:1006400016D0154B01221A6000F028FE386108E030
:1006500000F024FE02463B69D31A022B01D9032382
:1006600067E10B4B5B6F03F00203002BF0D01BE044
:10067000094B00221A6000F011FE38610EE000F014
:100680000DFE02463B69D31A022B07D9032350E122
:100690000038024000004742800E4742884B5B6FA3
:1006A00003F00203002BEAD17B681B6803F004030C
:1006B000002B00F097800023FB75814B1B6C03F02F
:1006C0008053002B0FD10023BB607D4B1B6C7C4AF9
:1006D00043F0805313647A4B1B6C03F08053BB6070
:1006E000BB680123FB75774B1B6803F48073002BF9
:1006F00018D1744B1B68734A43F48073136000F085
:10070000CDFD386108E000F0C9FD02463B69D31A0F
:10071000022B01D903230CE16A4B1B6803F480739D
:10072000002BF0D07B689B68012B06D1644B1B6FBC
:10073000634A43F0010313671CE07B689B68052B49
:100740000CD15F4B1B6F5E4A43F0040313675C4B95
:100750001B6F5B4A43F0010313670BE0584B1B6FA1
:10076000574A23F001031367554B1B6F544A23F07C
:10077000040313677B689B68002B15D000F08EFD87
:1007800038610AE000F08AFD02463B69D31A41F263
:100790008832934201D90323CBE0494B1B6F03F00E
:1007A0000203002BEED014E000F078FD38610AE07F
:1007B00000F074FD02463B69D31A41F2883293423D
:1007C00001D90323B5E03E4B1B6F03F00203002B5E
:1007D000EED1FB7D012B05D1394B1B6C384A23F040
:1007E000805313647B689B69002B00F0A180344B1D
:1007F0009B6803F00C03082B5CD07B689B69022B81
:1008000041D1314B00221A6000F048FD386108E008
:1008100000F044FD02463B69D31A022B01D90323A1
:1008200087E0274B1B6803F00073002BF0D17B6837
:10083000DA697B681B6A1A437B685B6A9B011A430F
:100840007B689B6A5B08013B1B041A437B68DB6A7D
:100850001B061B4913434B601B4B01221A6000F01F
:100860001DFD386108E000F019FD02463B69D31A0E
:10087000022B01D903235CE0114B1B6803F00073CA
:10088000002BF0D054E0104B00221A6000F006FD5F
:10089000386108E000F002FD02463B69D31A022BE2
:1008A00001D9032345E0064B1B6803F00073002BBE
:1008B000F0D13DE07B689B69012B07D1012338E033
:1008C0000038024000700040600047421B4B5B68EC
:1008D000FB607B689B69012B28D0FB6803F48002D6
:1008E0007B68DB699A4221D1FB6803F03F027B6899
:1008F0001B6A9A421AD1FA6847F6C07313407A68A5
:10090000526A9201934211D1FB6803F440327B6832
:100910009B6A5B08013B1B049A4207D1FB6803F00A
:1009200070627B68DB6A1B069A4201D0012300E0FB
:10093000002318461837BD4680BD00BF003802406E
:1009400080B584B000AF786039607B68002B01D13E
:100950000123CCE0684B1B6803F007033A689A4216
:100960000CD9654B3A68D2B21A70634B1B6803F01E
:1009700007033A689A4201D00123B8E07B681B68FC
:1009800003F00203002B20D07B681B6803F00403F4
:10099000002B05D0594B9B68584A43F4E0539360B1
:1009A0007B681B6803F00803002B05D0534B9B6842
:1009B000524A43F460439360504B9B6823F0F0022B
:1009C0007B689B684D4913438B607B681B6803F011
:1009D0000103002B44D07B685B68012B07D1474B98
:1009E0001B6803F40033002B19D101237FE07B68DF
:1009F0005B68022B03D07B685B68032B07D13F4BFE
:100A00001B6803F00073002B09D101236FE03B4BFF
:100A10001B6803F00203002B01D1012367E0374B71
:100A20009B6823F003027B685B68344913438B6047
:100A300000F034FCF8600AE000F030FC0246FB688D
:100A4000D31A41F28832934201D903234FE02B4B52
:100A50009B6803F00C027B685B689B009A42EBD1B9
:100A6000254B1B6803F007033A689A420CD2224BCD
:100A70003A68D2B21A70204B1B6803F007033A6839
:100A80009A4201D0012332E07B681B6803F0040323
:100A9000002B08D0194B9B6823F4E0527B68DB687D
:100AA000164913438B607B681B6803F00803002B17
:100AB00009D0124B9B6823F460427B681B69DB0002
:100AC0000E4913438B6000F021F802460B4B9B68E4
:100AD0001B0903F00F030A49CB5C22FA03F3094A0E
:100AE0001360094B1B68184600F094FB002318465E
:100AF0001037BD4680BD00BF003C024000380240B8
:100B0000B043000800000020040000202DE9B04F91
:100B100090B000AF00237B630023FB6300233B63A3
:100B20000023BB63594B9B6803F00C03082B0DD0CB
:100B3000082B00F2A180002B02D0042B03D09BE0F5
:100B4000534BBB639BE0534BBB6398E04F4B5B68DD
:100B500003F03F037B634D4B5B6803F48003002B82
:100B600028D04A4B5B689B0900223B627A623B6A51
:100B7000C3F308000021474B03FB01F2002300FBF5
:100B800003F31344434AA0FB0212FA620A46BA6214
:100B9000FA6A1344FB627B6B0022BB61FA61D7E9FE
:100BA0000623D7E90A01FFF7F3FA02460B4613467C
:100BB000FB6353E0354B5B689B0900223B617A6124
:100BC0003B69C3F3080A4FF0000B52465B464FF0F7
:100BD00000004FF00001590141EAD2615001024684
:100BE0000B46B2EB0A0863EB0B094FF000024FF023
:100BF00000034FEA891343EA98634FEA8812B2EB85
:100C0000080463EB09054FF000024FF00003EB000E
:100C100043EA5473E20014461D4614EB0A033B609A
:100C200045EB0B037B604FF000024FF00003D7E968
:100C3000004529468B02214643EA915321468A0208
:100C4000104619467B6B0022BB60FA60D7E902238D
:100C5000FFF79EFA02460B461346FB630B4B5B689D
:100C60001B0C03F0030301335B003B63FA6B3B6B2C
:100C7000B2FBF3F3BB6302E0054BBB6300BFBB6B8E
:100C800018464037BD46BDE8B08F00BF003802406F
:100C90000024F40040787D0180B489B000AF786012
:100CA000396000237B6100233B610023BB6100238B
:100CB000FB616BE10122FB6902FA03F37B613B6894
:100CC0001B687A6913403B613A697B699A4240F03C
:100CD0005A813B685B6803F00303012B05D03B6836
:100CE0005B6803F00303022B30D17B689B68BB6118
:100CF000FB695B00032202FA03F3DB43BA6913408A
:100D0000BB613B68DA68FB695B0002FA03F3BA690E
:100D10001343BB617B68BA699A607B685B68BB619F
:100D20000122FB6902FA03F3DB43BA691340BB619A
:100D30003B685B681B0903F00102FB6902FA03F3DD
:100D4000BA691343BB617B68BA695A603B685B68E8
:100D500003F00303032B17D07B68DB68BB61FB69DF
:100D60005B00032202FA03F3DB43BA691340BB6161
:100D70003B689A68FB695B0002FA03F3BA691343A4
:100D8000BB617B68BA69DA603B685B6803F00303A8
:100D9000022B23D1FB69DA087B68083253F8223032
:100DA000BB61FB6903F007039B000F2202FA03F308
:100DB000DB43BA691340BB613B681A69FB6903F006
:100DC00007039B0002FA03F3BA691343BB61FB6993
:100DD000DA087B680832B96943F822107B681B681F
:100DE000BB61FB695B00032202FA03F3DB43BA69D0
:100DF0001340BB613B685B6803F00302FB695B0067
:100E000002FA03F3BA691343BB617B68BA691A60DB
:100E10003B685B6803F44033002B00F0B480002390
:100E2000FB60604B5B6C5F4A43F4804353645D4BF3
:100E30005B6C03F48043FB60FB685B4AFB699B08C7
:100E4000023352F82330BB61FB6903F003039B00BC
:100E50000F2202FA03F3DB43BA691340BB617B68DC
:100E6000524A93422BD07B68514A934225D07B68EB
:100E7000504A93421FD07B684F4A934219D07B68F7
:100E80004E4A934213D07B684D4A93420DD07B6803
:100E90004C4A934207D07B684B4A934201D10723C7
:100EA0000EE008230CE006230AE0052308E00423F3
:100EB00006E0032304E0022302E0012300E0002314
:100EC000FA6902F0030292009340BA691343BB61CE
:100ED0003549FB699B080233BA6941F823203B4B33
:100EE0009B68BB613B69DB43BA691340BB613B68EC
:100EF0005B6803F48013002B03D0BA693B6913438A
:100F0000BB61324ABB699360304BDB68BB613B69B4
:100F1000DB43BA691340BB613B685B6803F40013B1
:100F2000002B03D0BA693B691343BB61274ABB69F5
:100F3000D360264B5B68BB613B69DB43BA691340F6
:100F4000BB613B685B6803F40033002B03D0BA69D4
:100F50003B691343BB611D4ABB6953601B4B1B6854
:100F6000BB613B69DB43BA691340BB613B685B68AB
:100F700003F48033002B03D0BA693B691343BB6190
:100F8000124ABB691360FB690133FB61FB690F2BDC
:100F90007FF690AE00BF00BF2437BD465DF8047BEE
:100FA000704700BF00380240003801400000024096
:100FB0000004024000080240000C02400010024001
:100FC0000014024000180240001C0240003C014096
:100FD00080B483B000AF78600B467B8013467B7093
:100FE0007B78002B03D07A887B689A6103E07B884A
:100FF0001A047B689A6100BF0C37BD465DF8047B1C
:101000007047000080B485B000AF78607B6803F063
:101010000703FB600C4BDB68BB60BA684FF6FF034D
:101020001340BB60FB681A02BB68134343F0BF6305
:1010300043F40033BB60044ABB68D36000BF14377D
:10104000BD465DF8047B704700ED00E080B400AF62
:10105000044BDB681B0A03F007031846BD465DF826
:10106000047B704700ED00E080B483B000AF03461E
:101070003960FB7197F90730002B0ADB3B68DAB265
:101080000C4997F907301201D2B20B4483F80023C0
:101090000AE03B68DAB20849FB7903F00F03043B2E
:1010A0001201D2B20B441A7600BF0C37BD465DF870
:1010B000047B704700E100E000ED00E080B489B0FF
:1010C00000AFF860B9607A60FB6803F00703FB616A
:1010D000FB69C3F10703042B28BF0423BB61FB6931
:1010E0000433062B02D9FB69033B00E000237B613C
:1010F0004FF0FF32BB6902FA03F3DA43BB681A40D0
:101100007B699A404FF0FF317B6901FA03F3D943C1
:101110007B680B40134318462437BD465DF8047BBB
:101120007047000080B582B000AF78607B68013BFB
:10113000B3F1807F01D301230FE00A4A7B68013BB2
:1011400053600F214FF0FF30FFF78EFF054B002259
:101150009A60044B07221A60002318460837BD46E0
:1011600080BD00BF10E000E080B582B000AF7860C5
:101170007868FFF747FF00BF0837BD4680BD80B5E0
:1011800086B000AF0346B9607A60FB7300237B61D1
:10119000FFF75CFF78617A68B9687869FFF78EFFBE
:1011A000024697F90F3011461846FFF75DFF00BF62
:1011B0001837BD4680BD80B582B000AF78607868D2
:1011C000FFF7B0FF034618460837BD4680BD000054
:1011D00080B500AF0E4B1B680D4A43F400731360DB
:1011E0000B4B1B680A4A43F480631360084B1B686F
:1011F000074A43F4807313600320FFF7B5FF0F2005
:1012000000F008F802F010FF0023184680BD00BF70
:10121000003C024080B582B000AF7860124B1A6883
:10122000124B1B7819464FF47A73B3FBF1F3B2FB00
:10123000F3F31846FFF7BFFF0346002B01D001234D
:101240000EE07B680F2B0AD8002279684FF0FF3040
:10125000FFF795FF064A7B681360002300E0012337
:1012600018460837BD4680BD000000200800002059
:101270000400002080B400AF064B1B781A46064BD2
:101280001B681344044A136000BFBD465DF8047B2D
:10129000704700BF080000202C00002080B400AF81
:1012A000034B1B681846BD465DF8047B704700BFC2
:1012B0002C00002080B483B000AF78607B6803F11D
:1012C00008027B685A607B684FF0FF329A607B6847
:1012D00003F108027B68DA607B6803F108027B682F
:1012E0001A617B6800221A6000BF0C37BD465DF8AA
:1012F000047B704780B483B000AF78607B680022C5
:101300001A6100BF0C37BD465DF8047B704780B49E
:1013100085B000AF786039607B685B68FB603B68D4
:10132000FA685A60FB689A683B689A60FB689B6839
:101330003A685A60FB683A689A603B687A681A6152
:101340007B681B685A1C7B681A6000BF1437BD4657
:101350005DF8047B704780B485B000AF7860396079
:101360003B681B68BB60BB68B3F1FF3F03D17B6880
:101370001B69FB600CE07B680833FB6002E0FB68E4
:101380005B68FB60FB685B681B68BA689A42F6D2D0
:10139000FB685A683B685A603B685B683A689A60C9
:1013A0003B68FA689A60FB683A685A603B687A68FA
:1013B0001A617B681B685A1C7B681A6000BF14376F
:1013C000BD465DF8047B704780B485B000AF78609F
:1013D0007B681B69FB607B685B687A6892689A60CF
:1013E0007B689B687A6852685A60FB685B687A68B9
:1013F0009A4203D17B689A68FB685A607B68002236
:101400001A61FB681B685A1EFB681A60FB681B6840
:1014100018461437BD465DF8047B704780B584B02C
:1014200000AF786039607B68FB60FB68002B0BD1F4
:101430004FF0500383F31188BFF36F8FBFF34F8FCB
:10144000BB6000BF00BFFDE702F0C6FBFB681A6887
:10145000FB68DB6BF968096C01FB03F31A44FB685A
:101460009A60FB6800229A63FB681A68FB685A60FE
:10147000FB681A68FB68DB6B013BF968096C01FBD0
:1014800003F31A44FB68DA60FB68FF2283F8442008
:10149000FB68FF2283F845203B68002B14D1FB68D2
:1014A0001B69002B1AD0FB681033184601F01AF99B
:1014B0000346002B12D00D4B4FF080521A60BFF341
:1014C0004F8FBFF36F8F09E0FB6810331846FFF7AB
:1014D000F1FEFB6824331846FFF7ECFE02F0AEFB8A
:1014E000012318461037BD4680BD00BF04ED00E063
:1014F00080B58EB002AFF860B9607A603B60FB687F
:10150000002B0BD14FF0500383F31188BFF36F8F83
:10151000BFF34F8FBB6200BF00BFFDE73B68002BEE
:101520000BD14FF0500383F31188BFF36F8FBFF3DC
:101530004F8F7B6200BF00BFFDE77B68002B02D0AE
:10154000BB68002B01D0012300E00023002B0BD14E
:101550004FF0500383F31188BFF36F8FBFF34F8FAA
:101560003B6200BF00BFFDE77B68002B02D1BB6878
:10157000002B01D1012300E00023002B0BD14FF001
:10158000500383F31188BFF36F8FBFF34F8FFB615D
:1015900000BF00BFFDE750237B617B69502B0BD060
:1015A0004FF0500383F31188BFF36F8FBFF34F8F5A
:1015B000BB6100BF00BFFDE77B693B68FB62FB6A64
:1015C000002B0DD0FB6A012283F8462097F83820C3
:1015D000FB6A009313467A68B968F86800F005F86A
:1015E000FB6A18463037BD4680BD80B584B000AF79
:1015F000F860B9607A60FB70BB68002B03D1BB69EF
:10160000BA691A6002E0BB697A681A60BB69FA6855
:10161000DA63BB69BA681A640121B869FFF7FEFE94
:10162000BB69FA7883F84C2000BF1037BD4680BDF7
:1016300080B58EB000AFF860B9607A603B6000237F
:101640007B63FB683B633B6B002B0BD14FF050037C
:1016500083F31188BFF36F8FBFF34F8FBB6200BF5F
:1016600000BFFDE7BB68002B03D13B6B1B6C002B5D
:1016700001D1012300E00023002B0BD14FF05003D8
:1016800083F31188BFF36F8FBFF34F8F7B6200BF6F
:1016900000BFFDE73B68022B03D13B6BDB6B012BEB
:1016A00001D1012300E00023002B0BD14FF05003A8
:1016B00083F31188BFF36F8FBFF34F8F3B6200BF7F
:1016C00000BFFDE701F0CEF90346002B02D17B6895
:1016D000002B01D1012300E00023002B0BD14FF0A0
:1016E000500383F31188BFF36F8FBFF34F8FFB61FC
:1016F00000BF00BFFDE702F06FFA3B6B9A6B3B6BDC
:10170000DB6B9A4202D33B68022B29D13A68B96855
:10171000386B00F00FFAF8623B6B5B6A002B10D05D
:101720003B6B2433184600F0DDFF0346002B13D03B
:101730003F4B4FF080521A60BFF34F8FBFF36F8F54
:101740000AE0FB6A002B07D0394B4FF080521A6039
:10175000BFF34F8FBFF36F8F02F070FA012363E086
:101760007B68002B03D102F069FA00235CE07B6BFD
:10177000002B06D107F11403184601F017F80123D6
:101780007B6302F05BFA00F087FD02F025FA3B6B09
:1017900093F844305BB2B3F1FF3F03D13B6B0022BF
:1017A00083F844203B6B93F845305BB2B3F1FF3FC5
:1017B00003D13B6B002283F8452002F03FFA3A1D2B
:1017C00007F114031146184601F006F80346002BF2
:1017D00024D1386B00F0A6FA0346002B18D03B6BDF
:1017E00010337A681146184600F02AFF386B00F073
:1017F00031FA00F05FFD0346002B7FF47CAF0C4B09
:101800004FF080521A60BFF34F8FBFF36F8F72E7B4
:10181000386B00F01FFA00F04DFD6CE7386B00F0FC
:1018200019FA00F047FD002318463837BD4680BD41
:1018300004ED00E080B590B000AFF860B9607A6068
:101840003B60FB68BB63BB6B002B0BD14FF05003BD
:1018500083F31188BFF36F8FBFF34F8FBB6200BF5D
:1018600000BFFDE7BB68002B03D1BB6B1B6C002BDB
:1018700001D1012300E00023002B0BD14FF05003D6
:1018800083F31188BFF36F8FBFF34F8F7B6200BF6D
:1018900000BFFDE73B68022B03D1BB6BDB6B012B69
:1018A00001D1012300E00023002B0BD14FF05003A6
:1018B00083F31188BFF36F8FBFF34F8F3B6200BF7D
:1018C00000BFFDE702F068FAEFF311824FF050031A
:1018D00083F31188BFF36F8FBFF34F8FFA61BB6142
:1018E000FB697B63BB6B9A6BBB6BDB6B9A4202D36E
:1018F0003B68022B2FD1BB6B93F8453087F8333010
:10190000BB6B9B6BFB623A68B968B86B00F012F96D
:1019100097F93330B3F1FF3F12D1BB6B5B6A002BF9
:1019200016D0BB6B2433184600F0DCFE0346002BB8
:101930000ED07B68002B0BD07B6801221A6007E079
:1019400097F833300133DBB25AB2BB6B83F84520D2
:101950000123FB6301E00023FB637B6B7B617B69FD
:1019600083F3118800BFFB6B18464037BD4680BD2E
:1019700080B58CB000AFF860B9607A600023FB627C
:10198000FB68BB62BB6A002B0BD14FF0500383F3A3
:101990001188BFF36F8FBFF34F8F3B6200BF00BF53
:1019A000FDE7BB68002B03D1BB6A1B6C002B01D188
:1019B000012300E00023002B0BD14FF0500383F3F1
:1019C0001188BFF36F8FBFF34F8FFB6100BF00BF64
:1019D000FDE701F047F80346002B02D17B68002B9E
:1019E00001D1012300E00023002B0BD14FF0500365
:1019F00083F31188BFF36F8FBFF34F8FBB6100BFBD
:101A000000BFFDE702F0E8F8BB6A9B6B7B627B6A74
:101A1000002B1FD0B968B86A00F0F6F87B6A5A1E2E
:101A2000BB6A9A63BB6A1B69002B0FD0BB6A103379
:101A3000184600F057FE0346002B07D03C4B4FF0F2
:101A400080521A60BFF34F8FBFF36F8F02F0F6F82A
:101A5000012369E07B68002B03D102F0EFF800233B
:101A600062E0FB6A002B06D107F11003184600F074
:101A70009DFE0123FB6202F0E1F800F00DFC02F094
:101A8000ABF8BB6A93F844305BB2B3F1FF3F03D1CC
:101A9000BB6A002283F84420BB6A93F845305BB2EE
:101AA000B3F1FF3F03D1BB6A002283F8452002F067
:101AB000C5F83A1D07F110031146184600F08CFED8
:101AC0000346002B23D1B86A00F016F90346002B19
:101AD00017D0BB6A24337A681146184600F0B0FD6F
:101AE000B86A00F0B7F800F0E5FB0346002B89D197
:101AF0000F4B4FF080521A60BFF34F8FBFF36F8FC1
:101B000080E7B86A00F0A6F800F0D4FB7AE7B86A7C
:101B100000F0A0F800F0CEFBB86A00F0EDF8034644
:101B2000002B3FF46FAF002318463037BD4680BD11
:101B300004ED00E080B586B000AFF860B9607A606F
:101B400000237B61FB689B6B3B61FB681B6C002B7C
:101B50000DD1FB681B68002B4DD1FB689B681846B4
:101B600000F09EFF7861FB6800229A6043E07B688A
:101B7000002B19D1FB685868FB681B6C1A46B968C2
:101B8000FEF79AFBFB685A68FB681B6C1A44FB68FB
:101B90005A60FB685A68FB689B689A422BD3FB68C3
:101BA0001A68FB685A6026E0FB68D868FB681B6C03
:101BB0001A46B968FEF780FBFB68DA68FB681B6CA5
:101BC0005B421A44FB68DA60FB68DA68FB681B68F2
:101BD0009A4207D2FB689A68FB681B6C5B421A4406
:101BE000FB68DA607B68022B05D13B69002B02D0D1
:101BF0003B69013B3B613B695A1CFB689A637B690B
:101C000018461837BD4680BD80B582B000AF7860F9
:101C100039607B681B6C002B18D07B68DA687B68A6
:101C20001B6C1A447B68DA607B68DA687B689B68A7
:101C30009A4203D37B681A687B68DA607B68D9684C
:101C40007B681B6C1A463868FEF736FB00BF083706
:101C5000BD4680BD80B584B000AF786001F0BCFFA8
:101C60007B6893F84530FB7311E07B685B6A002B5F
:101C700012D07B682433184600F034FD0346002B55
:101C800001D000F00DFEFB7B013BDBB2FB7397F94B
:101C90000F30002BE9DC00E000BF7B68FF2283F8F7
:101CA000452001F0CBFF01F097FF7B6893F84430AB
:101CB000BB7311E07B681B69002B12D07B6810336B
:101CC000184600F00FFD0346002B01D000F0E8FDA0
:101CD000BB7B013BDBB2BB7397F90E30002BE9DC19
:101CE00000E000BF7B68FF2283F8442001F0A6FFDC
:101CF00000BF1037BD4680BD80B584B000AF7860AE
:101D000001F06AFF7B689B6B002B02D10123FB6013
:101D100001E00023FB6001F091FFFB6818461037DB
:101D2000BD4680BD80B584B000AF786001F054FF3F
:101D30007B689A6B7B68DB6B9A4202D10123FB6064
:101D400001E00023FB6001F079FFFB6818461037C3
:101D5000BD4680BD80B485B000AF78603960002397
:101D6000FB6014E00F4AFB6852F83330002B0BD1B4
:101D70000C49FB683A6841F833200A4AFB68DB00EB
:101D800013447A685A6006E0FB680133FB60FB6825
:101D9000072BE7D900BF00BF1437BD465DF8047BB1
:101DA000704700BF3000002080B586B000AFF860FB
:101DB000B9607A60FB687B6101F00EFF7B6993F884
:101DC00044305BB2B3F1FF3F03D17B69002283F85B
:101DD00044207B6993F845305BB2B3F1FF3F03D1F8
:101DE0007B69002283F8452001F028FF7B699B6B0B
:101DF000002B06D17B6924337A68B968184600F055
:101E000045FC7869FFF726FF00BF1837BD4680BD47
:101E100080B58EB004AFF860B9607A603B607B6BD0
:101E2000002B0BD14FF0500383F31188BFF36F8F5A
:101E3000BFF34F8F3B6200BF00BFFDE7BB6B002BC2
:101E40000BD14FF0500383F31188BFF36F8FBFF3B3
:101E50004F8FFB6100BF00BFFDE75C233B613B6927
:101E60005C2B0BD04FF0500383F31188BFF36F8FBF
:101E7000BFF34F8FBB6100BF00BFFDE73B69BB6B8A
:101E8000002B1ED07B6B002B1BD0BB6B7B627B6A55
:101E90007A6B1A637B6A022283F85920002303932A
:101EA0007B6A029307F1140301933B6B00933B6839
:101EB0007A68B968F86800F050F8786A00F0DEF8DF
:101EC00001E000237B617B6918462837BD4680BD51
:101ED00080B58CB004AFF860B9603B601346FB80FE
:101EE000FB889B00184601F059FB78617B69002B49
:101EF0000ED05C2001F052FBF861FB69002B03D08F
:101F0000FB697A691A6305E0786901F015FC01E064
:101F10000023FB61FB69002B17D0FB69002283F8CB
:101F20005920FA8800230393FB690293FB6A01930B
:101F3000BB6A00933B68B968F86800F00EF8F8696E
:101F400000F09CF80123BB6102E04FF0FF33BB615E
:101F5000BB6918462037BD4680BD80B588B000AF4C
:101F6000F860B9607A603B603B6B186B7B689B00E4
:101F70001A46A521FEF726F93B6B1A6B7B6803F125
:101F80008043013B9B001344BB61BB6923F0070303
:101F9000BB61BB6903F00703002B0BD04FF050036C
:101FA00083F31188BFF36F8FBFF34F8F7B6100BF47
:101FB00000BFFDE7BB68002B1FD00023FB6112E0D0
:101FC000BA68FB69134419783A6BFB6913443433DC
:101FD0000A461A70BA68FB6913441B78002B06D0B6
:101FE000FB690133FB61FB690F2BE9D900E000BFFE
:101FF0003B6B002283F8432003E03B6B002283F815
:102000003420BB6A372B01D93723BB623B6BBA6ADA
:10201000DA623B6BBA6ADA643B6B00221A653B6B8F
:1020200004331846FFF766F93B6B18331846FFF781
:1020300061F93B6B3A6B1A61BB6AC3F138023B6BC7
:102040009A613B6B3A6B5A623B6B00225A653B6B61
:10205000002283F858203A68F968B86901F08CFCCE
:1020600002463B6B1A60FB6A002B02D0FB6A3A6B9C
:102070001A6000BF2037BD4680BD000080B582B029
:1020800000AF786001F0A8FD2D4B1B6801332C4A8E
:1020900013602C4B1B68002B09D12A4A7B68136004
:1020A000274B1B68012B10D100F01EFC0DE0264BC6
:1020B0001B68002B09D1234B1B68DA6A7B68DB6A3B
:1020C0009A4202D81F4A7B681360204B1B68013379
:1020D0001E4A13601D4B1A687B685A647B68DA6A73
:1020E0001B4B1B689A4203D97B68DB6A184A136052
:1020F0007B68DA6A13469B0013449B00154A1A4416
:102100007B68043319461046FFF701F901F096FD8C
:102110000D4B1B68002B0ED00A4B1B68DA6A7B68DC
:10212000DB6A9A4207D20C4B4FF080521A60BFF321
:102130004F8FBFF36F8F00BF0837BD4680BD00BF14
:10214000440500207000002050050020600500209C
:102150004C0500207400002004ED00E080B584B040
:1021600000AF78600023FB607B68002B18D0144B15
:102170001B68002B0BD04FF0500383F31188BFF383
:102180006F8FBFF34F8FBB6000BF00BFFDE700F054
:1021900083F80021786800F0F3FC00F08BF8F86019
:1021A000FB68002B07D1074B4FF080521A60BFF33A
:1021B0004F8FBFF36F8F00BF1037BD4680BD00BF8C
:1021C0006C05002004ED00E080B58AB004AF002368
:1021D000BB6000237B603A46391D07F108031846AF
:1021E00001F0A8F939687B68BA680292019300236C
:1021F000009300230A4622492248FFF709FE0346BE
:10220000214A1360204B1B68002B02D001237B6105
:1022100001E000237B617B69012B02D100F004FD0A
:1022200078617B69012B16D14FF0500383F311883D
:10223000BFF36F8FBFF34F8F3B6100BF134B4FF066
:10224000FF321A60124B01221A60124B00221A60F0
:1022500001F01EFC0FE07B69B3F1FF3F0BD14FF0A3
:10226000500383F31188BFF36F8FBFF34F8FFB6071
:1022700000BF00BFFDE700BF1837BD4680BD00BFEF
:102280008C430008B9280008680500206405002078
:10229000500500204805002080B400AF044B1B68A7
:1022A0000133034A136000BFBD465DF8047B7047ED
:1022B0006C05002080B584B000AF0023FB600023D4
:1022C000BB60424B1B68002B0BD14FF0500383F3D4
:1022D0001188BFF36F8FBFF34F8F3B6000BF00BF0C
:1022E000FDE701F079FC394B1B68013B374A13606D
:1022F000364B1B68002B62D1354B1B68002B5ED020
:102300002FE0344BDB68DB68FB60FB681833184652
:10231000FFF75AF8FB6804331846FFF755F8FB68D7
:10232000DA6A2D4B1B689A4203D9FB68DB6A2A4A9A
:102330001360FB68DA6A13469B0013449B00274A2C
:102340001A44FB68043319461046FEF7E0FFFB68A9
:10235000DA6A234B1B68DB6A9A4202D3214B0122C3
:102360001A601C4B1B68002BCBD1FB68002B01D0E3
:1023700000F058FB1C4B1B687B607B68002B10D067
:1023800000F046F80346002B02D0164B01221A60DB
:102390007B68013B7B607B68002BF1D1124B0022F4
:1023A0001A60104B1B68002B09D00123BB600F4B38
:1023B0004FF080521A60BFF34F8FBFF36F8F01F061
:1023C0003DFCBB6818461037BD4680BD6C0500203B
:1023D00044050020040500204C0500207400002066
:1023E00070000020580500205405002004ED00E096
:1023F00080B483B000AF054B1B687B607B681846D8
:102400000C37BD465DF8047B704700BF48050020CF
:1024100080B586B000AF00237B614F4B1B68002B5B
:1024200040F090804D4B1B6801333B614B4A3B6948
:1024300013603B69002B21D1494B1B681B68002BA3
:102440000BD04FF0500383F31188BFF36F8FBFF3AE
:102450004F8F3B6000BF00BFFDE7414B1B68FB6037
:10246000404B1B683E4A13603E4AFB6813603E4B7C
:102470001B6801333C4A136000F0D4FA3B4B1B68E5
:102480003A699A4249D3364B1B681B68002B04D12A
:10249000364B4FF0FF321A603FE0314B1B68DB6870
:1024A000DB68BB60BB685B687B603A697B689A42AB
:1024B00003D22E4A7B6813602FE0BB6804331846B2
:1024C000FEF782FFBB689B6A002B04D0BB68183301
:1024D0001846FEF779FFBB68DA6A254B1B689A42FB
:1024E00003D9BB68DB6A224A1360BB68DA6A134609
:1024F0009B0013449B001F4A1A44BB6804331946CF
:102500001046FEF704FFBB68DA6A1B4B1B68DB6AE8
:102510009A42B8D301237B61B5E7174B1B68DA6A8F
:10252000144913469B0013449B000B441B68012B6A
:1025300001D901237B61114B1B68002B07D00123BC
:102540007B6104E00E4B1B6801330D4A13607B690D
:1025500018461837BD4680BD6C0500204805002090
:10256000FC040020000500205C050020640500201C
:102570004C05002074000020700000205805002049
:102580005405002080B485B000AF284B1B68002B99
:1025900003D0274B01221A6042E0254B00221A602B
:1025A000244B1B68FB6011E0FB68002B0BD14FF044
:1025B000500383F31188BFF36F8FBFF34F8F7B609E
:1025C00000BF00BFFDE7FB68013BFB601A49FA68EA
:1025D00013469B0013449B000B441B68002BE3D065
:1025E000FA6813469B0013449B00134A1344BB60D4
:1025F000BB685B685A68BB685A60BB685A68BB684E
:1026000008339A4204D1BB685B685A68BB685A6059
:10261000BB685B68DB68094A1360064AFB681360A5
:1026200000BF1437BD465DF8047B70476C05002081
:10263000580500204C050020740000207000002088
:1026400080B584B000AF786039607B68002B0BD117
:102650004FF0500383F31188BFF36F8FBFF34F8F99
:10266000FB6000BF00BFFDE7074B1B68183319462E
:102670007868FEF770FE0121386800F081FA00BF2B
:102680001037BD4680BD00BF7000002080B586B009
:1026900000AFF860B9607A60FB68002B0BD14FF097
:1026A000500383F31188BFF36F8FBFF34F8F7B61AC
:1026B00000BF00BFFDE70A4B1B6818331946F868D6
:1026C000FEF725FE7B68002B02D04FF0FF33BB6086
:1026D0007968B86800F054FA00BF1837BD4680BD6D
:1026E0007000002080B586B000AF78607B68DB6842
:1026F000DB683B613B69002B0BD14FF0500383F348
:102700001188BFF36F8FBFF34F8FFB6000BF00BF17
:10271000FDE73B6918331846FEF756FE1D4B1B6854
:10272000002B1DD13B6904331846FEF74DFE3B6973
:10273000DA6A194B1B689A4203D93B69DB6A164A6D
:1027400013603B69DA6A13469B0013449B00134AEB
:102750001A443B69043319461046FEF7D8FD05E0DC
:102760003B69183319460E48FEF7D1FD3B69DA6A1A
:102770000C4B1B68DB6A9A4205D901237B610A4B2B
:1027800001221A6001E000237B617B69184618373B
:10279000BD4680BD6C0500204C0500207400002063
:1027A00004050020700000205805002080B483B08C
:1027B00000AF7860064B1A687B681A60054B1A6890
:1027C0007B685A6000BF0C37BD465DF8047B7047DC
:1027D0005C0500204805002080B588B000AF786017
:1027E00039607B68002B0BD14FF0500383F31188C5
:1027F000BFF36F8FBFF34F8F3B6100BF00BFFDE79B
:102800003B68002B0BD14FF0500383F31188BFF3CB
:102810006F8FBFF34F8FFB6000BF00BFFDE701F07C
:10282000DBF91D4B1B68BB617B685B68BA69D31A17
:102830007B613B681B68B3F1FF3F02D10023FB6162
:1028400023E07B681A68154B1B689A4207D07B68A7
:102850005B68BA699A4202D30123FB6115E03B68C9
:102860001B687A699A420BD23B681A687B69D21A54
:102870003B681A607868FFF799FF0023FB6104E06A
:102880003B6800221A600123FB6101F0D7F9FB6964
:1028900018462037BD4680BD480500205C05002055
:1028A00080B400AF034B01221A6000BFBD465DF843
:1028B000047B70475805002080B582B000AF786077
:1028C00000F052F8064B1B68012BF9D9054B4FF06D
:1028D00080521A60BFF34F8FBFF36F8FF0E700BFD6
:1028E0007400002004ED00E080B582B000AF00234A
:1028F0007B600CE07A6813469B0013449B00124AED
:1029000013441846FEF7D6FC7B6801337B607B6876
:10291000372BEFD90D48FEF7CDFC0D48FEF7CAFC6A
:102920000C48FEF7C7FC0C48FEF7C4FC0B48FEF74A
:10293000C1FC0B4B054A1A600A4B054A1A6000BFDE
:102940000837BD4680BD00BF74000020D4040020BD
:10295000E8040020040500201805002030050020B0
:10296000FC0400200005002080B582B000AF19E013
:1029700001F032F9104BDB68DB687B607B68043365
:102980001846FEF721FD0D4B1B68013B0B4A1360F7
:102990000B4B1B68013B0A4A136001F04FF9786842
:1029A00000F010F8064B1B68002BE1D100BF00BF00
:1029B0000837BD4680BD00BF180500204405002033
:1029C0002C05002080B584B000AF78607B6893F858
:1029D0005930002B08D17B681B6B184600F0ACFE09
:1029E000786800F0A9FE19E07B6893F85930012B54
:1029F00003D1786800F0A0FE10E07B6893F85930AE
:102A0000022B0BD04FF0500383F31188BFF36F8F6D
:102A1000BFF34F8FFB6000BF00BFFDE700BF103763
:102A2000BD4680BD80B483B000AF0C4B1B681B68F3
:102A3000002B04D10A4B4FF0FF321A6008E0074B1D
:102A40001B68DB68DB687B607B685B68044A13603B
:102A500000BF0C37BD465DF8047B7047FC040020C6
:102A60006405002080B483B000AF0B4B1B68002BC3
:102A700002D101237B6008E0084B1B68002B02D1C8
:102A800002237B6001E000237B607B6818460C37E3
:102A9000BD465DF8047B7047500500206C050020A2
:102AA00080B586B000AF78607B683B6100237B61B6
:102AB0007B68002B58D02F4B1B683A699A420BD089
:102AC0004FF0500383F31188BFF36F8FBFF34F8F25
:102AD000FB6000BF00BFFDE73B691B6D002B0BD106
:102AE0004FF0500383F31188BFF36F8FBFF34F8F05
:102AF000BB6000BF00BFFDE73B691B6D5A1E3B6911
:102B00001A653B69DA6A3B69DB6C9A422CD03B69F7
:102B10001B6D002B28D13B6904331846FEF754FC8B
:102B20003B69DA6C3B69DA623B69DB6AC3F1380204
:102B30003B699A613B69DA6A0F4B1B689A4203D979
:102B40003B69DB6A0C4A13603B69DA6A13469B00F7
:102B500013449B00094A1A443B6904331946104642
:102B6000FEF7D5FB01237B617B6918461837BD460C
:102B700080BD00BF700000204C05002074000020C4
:102B800080B584B000AF78603960214B1B68FB6072
:102B9000204B1B6804331846FEF716FC7B68B3F124
:102BA000FF3F0AD13B68002B07D01A4B1B68043348
:102BB00019461948FEF7ABFB26E0FA687B68134418
:102BC000BB60144B1B68BA685A60BA68FB689A42CB
:102BD00009D2124B1A680F4B1B6804331946104672
:102BE000FEF7B9FB10E00E4B1A680A4B1B68043362
:102BF00019461046FEF7AFFB0A4B1B68BA689A42AB
:102C000002D2084ABB68136000BF1037BD4680BDC2
:102C1000480500207000002030050020000500203D
:102C2000FC0400206405002080B58AB004AF0023B6
:102C30007B6100F013FB1D4B1B68002B21D0002390
:102C4000FB600023BB603A1D07F1080107F10C038C
:102C5000184600F089FC7968BB68FA680292019313
:102C60000223009300230A4611491248FFF7D0F8C7
:102C70000346114A1360104B1B68002B01D001233F
:102C80007B617B69002B0BD14FF0500383F31188DC
:102C9000BFF36F8FBFF34F8F3B6100BF00BFFDE7F6
:102CA0007B6918461837BD4680BD00BFA0050020CF
:102CB00094430008F52D0008A405002080B58AB0D3
:102CC00000AFF860B9607A603B6000237B62FB680C
:102CD000002B0BD14FF0500383F31188BFF36F8F9C
:102CE000BFF34F8F3B6200BF00BFFDE7194B1B686E
:102CF000002B2AD0BB683B617B687B61FB68BB61B2
:102D0000BB68052B18DCFFF7ADFE0346022B09D18B
:102D1000104B186807F1100100233A6BFEF788FC8E
:102D2000786212E00B4B186807F1100100230022B3
:102D3000FEF77EFC786208E0064B186807F1100188
:102D400000233A68FEF776FD78627B6A18462837DA
:102D5000BD4680BDA005002080B588B002AF786078
:102D60003960234B1B68DB68DB687B617B6904335C
:102D70001846FEF729FB7B6993F8283003F004031B
:102D8000002B23D07B699A697B68D1187B683A68ED
:102D9000786900F0D5F80346002B20D0002300937B
:102DA00000237A6800217869FFF788FF38613B6962
:102DB000002B14D14FF0500383F31188BFF36F8FB2
:102DC000BFF34F8FFB6000BF00BFFDE77B6993F847
:102DD000283023F00103DAB27B6983F828207B696D
:102DE0001B6A7869984700BF1837BD4680BD00BF91
:102DF0009805002080B584B000AF786007F1080323
:102E0000184600F059F8F860BB681946F86800F0F9
:102E100005F800F0D7F800BFF0E7000080B584B0F7
:102E200000AF78603960FFF737FA07F108031846FA
:102E300000F066F8F860BB68002B30D13B68002BCF
:102E40000AD17A68FB689A4206D8FFF733FAF96824
:102E50007868FFF781FF24E03B68002B08D0134B14
:102E60001B681B68002B01D1012300E000233B609D
:102E70000F4B18687A68FB68D31A3A681946FEF750
:102E800093FFFFF717FA0346002B0AD1094B4FF0C7
:102E900080521A60BFF34F8FBFF36F8F01E0FFF7CF
:102EA00009FA00BF1037BD4680BD00BF9C05002059
:102EB000A005002004ED00E080B485B000AF78608C
:102EC0000E4B1B681B68002B01D1012200E0002281
:102ED0007B681A607B681B68002B05D1074B1B6859
:102EE000DB681B68FB6001E00023FB60FB681846A1
:102EF0001437BD465DF8047B704700BF980500207D
:102F000080B584B000AF7860FFF772FAF8600B4BC1
:102F10001B68FA689A4205D200F03AF97B680122F0
:102F20001A6002E07B6800221A60044AFB681360A2
:102F3000FB6818461037BD4680BD00BFA8050020BD
:102F400080B586B000AFF860B9607A603B6000235E
:102F50007B61FB68BA685A60FB68FA681A61BA68F4
:102F60007B689A4212D87A683B68D21AFB689B69E0
:102F70009A4202D301237B611BE0104B1A68FB6865
:102F8000043319461046FEF7E6F912E07A683B680A
:102F90009A4206D2BA683B689A4202D301237B6107
:102FA00007E0074B1A68FB68043319461046FEF722
:102FB000D2F97B6918461837BD4680BD9C050020B4
:102FC0009805002080B58EB002AFCEE07B68002B64
:102FD00019DA3B1D0433FB62FB6A002B0BD14FF067
:102FE000500383F31188BFF36F8FBFF34F8FFB61E3
:102FF00000BF00BFFDE7FB6A1B68FA6A5068FA6A07
:103000009268114698477B68002BC0F2AE80FB683F
:10301000BB62BB6A5B69002B04D0BB6A04331846F1
:10302000FEF7D2F93B461846FFF76AFF78627B68E5
:10303000092B00F2978001A252F823F065300008B6
:103040006530000865300008DB300008EF3000080C
:103050003B3100086530000865300008DB300008AF
:10306000EF300008BB6A93F8283043F00103DAB26E
:10307000BB6A83F82820BA68BB6A9B69D118BB6811
:103080007A6AB86AFFF75CFF0346002B6CD0BB6A14
:103090001B6AB86A9847BB6A93F8283003F00403A8
:1030A000002B61D0BA68BB6A9B691A440023009365
:1030B00000230021B86AFFF701FE38623B6A002B4B
:1030C00052D14FF0500383F31188BFF36F8FBFF3DA
:1030D0004F8FBB6100BF00BFFDE7BB6A93F828308C
:1030E00023F00103DAB2BB6A83F828203DE0BB6A13
:1030F00093F8283043F00103DAB2BB6A83F8282042
:10310000BA68BB6A9A61BB6A9B69002B0BD14FF00E
:10311000500383F31188BFF36F8FBFF34F8F7B6131
:1031200000BF00BFFDE7BB6A9A697B6AD1187B6A62
:103130007A6AB86AFFF704FF17E0BB6A93F8283091
:1031400003F00203002B03D1B86A00F0F5FA0CE09B
:10315000BB6A93F8283023F00103DAB2BB6A83F824
:10316000282002E000BF00E000BF084B1B68391DAB
:1031700000221846FEF7FCFB0346002B7FF426AF27
:1031800000BF00BF3037BD4680BD00BFA005002096
:1031900080B588B002AF49E02E4B1B68DB681B6826
:1031A0003B612C4B1B68DB68DB68FB60FB6804330E
:1031B0001846FEF709F9FB681B6AF8689847FB6830
:1031C00093F8283003F00403002B2FD0FB689B6991
:1031D0003A691344BB60BA683B699A420ED9FB68EE
:1031E000BA685A60FB68FA681A611A4B1A68FB6879
:1031F000043319461046FEF7AEF817E0002300939B
:1032000000233A690021F868FFF758FD78607B6871
:10321000002B0BD14FF0500383F31188BFF36F8F56
:10322000BFF34F8F3B6000BF00BFFDE7094B1B683A
:103230001B68002BB0D1074B1B687B61064B1B68DA
:10324000044A1360044A7B69136000BF1837BD4607
:1032500080BD00BF980500209C05002080B582B08D
:1032600002AF00F0B9FC154B1B68002B20D11448AD
:10327000FEF720F81348FEF71DF8134B104A1A60AA
:10328000124B104A1A6000230093114B114A10216F
:103290000A20FEF72DF90346084A1360074B1B6806
:1032A000002B05D0054B1B680B491846FEF752FD55
:1032B00000F0C4FC00BFBD4680BD00BFA0050020DB
:1032C0007005002084050020980500209C05002042
:1032D0004C060020AC0500209C43000880B483B05D
:1032E00000AF03463960FB7197F90730002B0ADB0A
:1032F0003B68DAB20C4997F907301201D2B20B449D
:1033000083F800230AE03B68DAB20849FB7903F04E
:103310000F03043B1201D2B20B441A7600BF0C37E4
:10332000BD465DF8047B704700E100E000ED00E081
:1033300080B500AF00216FF00400FFF7CFFF00BFA2
:1033400080BD000080B483B000AFEFF305833B6025
:103350003B68002B03D06FF005037B600CE00A4B49
:103360001B68002B05D1084B01221A6000237B60EB
:1033700002E04FF0FF337B607B6818460C37BD4698
:103380005DF8047B704700BF9C06002080B582B0CA
:1033900000AFEFF305833B603B68002B03D06FF079
:1033A00005037B6010E00B4B1B68012B09D1FFF775
:1033B000BFFF084B02221A60FEF706FF00237B6066
:1033C00002E04FF0FF337B607B6818460837BD464C
:1033D00080BD00BF9C06002080B58EB004AFF860B1
:1033E000B9607A6000233B61EFF305837B617B6901
:1033F000002B7ED1FB68002B7BD080233B621823FF
:10340000FB6100237B624FF0FF33BB617B68002BC5
:1034100045D07B681B68002B02D07B681B687B62F1
:103420007B689B69002B02D07B689B69FB61FB6911
:10343000002B08D0FB69382B05D87B685B6803F04C
:103440000103002B01D0002354E07B685B69002B53
:1034500003D07B685B699B083B627B689B68002BA1
:103460000ED07B68DB685B2B0AD97B681B69002B5D
:1034700006D07B685B69002B02D00123BB6110E0A2
:103480007B689B68002B0CD17B68DB68002B08D124
:103490007B681B69002B04D10023BB6101E0002382
:1034A000BB61BB69012B10D17B681B697A6892688C
:1034B00002920193FB690093BB683A6A796AF868E3
:1034C000FEF7A6FC03463B6113E0BB69002B10D15D
:1034D0003B6A9AB207F110030193FB690093BB6842
:1034E000796AF868FEF7F4FC0346012B01D000234B
:1034F0003B613B6918462837BD4680BD80B584B026
:1035000000AF7860EFF30583BB60BB68002B03D08E
:103510006FF00503FB6007E00023FB607B68002B76
:1035200002D07868FEF71AFEFB6818461037BD46D1
:1035300080BD000080B485B000AFF860B9607A60EB
:10354000FB68074A1A60BB68064A1A607B688022DB
:103550001A6000BF1437BD465DF8047B704700BF9A
:10356000A0060020FC06002080B485B000AFF86003
:10357000B9607A60FB68074A1A60BB68064A1A603D
:103580007B684FF480721A6000BF1437BD465DF847
:10359000047B7047FC0800205809002080B58AB0E1
:1035A00000AF78600023FB61FEF776FE5C4B1B6882
:1035B000002B01D100F024F95A4B1A687B681340A4
:1035C000002B40F095807B68002B1ED008227B6882
:1035D00013447B607B6803F00703002B15D07B68E6
:1035E00023F0070308337B607B6803F00703002B9D
:1035F0000BD04FF0500383F31188BFF36F8FBFF3ED
:103600004F8F7B6100BF00BFFDE77B68002B6FD051
:10361000454B1B687A689A426AD8444B3B62434BDD
:103620001B687B6204E07B6A3B627B6A1B687B628F
:103630007B6A5B687A689A4203D97B6A1B68002BB5
:10364000F1D1374B1B687A6A9A4251D03B6A1B68AA
:1036500008221344FB617B6A1A683B6A1A607B6A22
:103660005A687B68D21A08235B009A4220D97A6A8A
:103670007B681344BB61BB6903F00703002B0BD0CD
:103680004FF0500383F31188BFF36F8FBFF34F8F59
:103690003B6100BF00BFFDE77B6A5A687B68D21AB6
:1036A000BB695A607B6A7A685A60B86900F00AF9A7
:1036B0001D4B1A687B6A5B68D31A1B4A13601A4B4E
:1036C0001A681B4B1B689A4203D2174B1B68184A97
:1036D00013607B6A5A68134B1B681A437B6A5A60F3
:1036E0007B6A00221A60134B1B680133114A136076
:1036F000FEF7E0FDFB6903F00703002B0BD04FF052
:10370000500383F31188BFF36F8FBFF34F8FFB60BC
:1037100000BF00BFFDE7FB6918462837BD4680BDE6
:103720006049002074490020644900205849002065
:10373000684900206C49002080B586B000AF7860F1
:103740007B687B617B68002B4FD008235B427A69E2
:1037500013447B617B693B613B695A68254B1B685D
:103760001340002B0BD14FF0500383F31188BFF3AC
:103770006F8FBFF34F8FFB6000BF00BFFDE73B695A
:103780001B68002B0BD04FF0500383F31188BFF35D
:103790006F8FBFF34F8FBB6000BF00BFFDE73B697A
:1037A0005A68144B1B681340002B1ED03B691B68E2
:1037B000002B1AD13B695A680E4B1B68DB431A4039
:1037C0003B695A60FEF768FD3B695A680A4B1B6803
:1037D0001344094A1360386900F074F8074B1B68FA
:1037E0000133064A1360FEF765FD00BF1837BD467A
:1037F00080BD00BF7449002064490020704900204A
:1038000080B485B000AF4FF47053BB60274BFB60B2
:10381000FB6803F00703002B0CD0FB680733FB6049
:10382000FB6823F00703FB60BA68FB68D31A1F4AE2
:103830001344BB60FB687B601D4A7B6813601C4BB4
:1038400000225A607B68BA681344FB600822FB6858
:103850009B1AFB60FB6823F00703FB60FB68154ABB
:103860001360144B1B6800225A60124B1B68002225
:103870001A607B683B603B68FA68D21A3B685A6002
:103880000C4B1A683B681A603B685B680A4A136015
:103890003B685B68094A1360094B4FF000421A60AD
:1038A00000BF1437BD465DF8047B7047580D0020FB
:1038B00058490020604900206849002064490020E0
:1038C0007449002080B485B000AF7860284BFB605D
:1038D00002E0FB681B68FB60FB681B687A689A4221
:1038E000F7D8FB68BB60FB685B68BA6813447A680A
:1038F0009A4208D1FB685A687B685B681A44FB6887
:103900005A60FB687B607B68BB607B685B68BA68F9
:103910001A44FB681B689A4218D1FB681A68154B59
:103920001B689A420DD07B685A68FB681B685B680D
:103930001A447B685A60FB681B681A687B681A60C7
:1039400008E00C4B1A687B681A6003E0FB681A6891
:103950007B681A60FA687B689A4202D0FB687A68D2
:103960001A6000BF1437BD465DF8047B704700BF86
:10397000584900206049002080B485B000AFF8604D
:10398000B9607A60FB68043BFB60FB684FF08072B3
:103990001A60FB68043BFB60BB6823F00102FB6814
:1039A0001A60FB68043BFB600C4AFB681A60FB680A
:1039B000143BFB607A68FB681A60FB68043BFB60A1
:1039C000FB686FF002021A60FB68203BFB60FB683B
:1039D00018461437BD465DF8047B7047E13900088E
:1039E00080B485B000AF00237B60134B1B68B3F13C
:1039F000FF3F0BD04FF0500383F31188BFF36F8F5D
:103A0000BFF34F8FFB6000BF00BFFDE74FF05003D7
:103A100083F31188BFF36F8FBFF34F8FBB6000BF7D
:103A200000BF7B68002BFCD000BF00BF1437BD4631
:103A30005DF8047B704700BF0C0000200000000010
:103A4000074B19680868B0E8F04F80F30988BFF3A6
:103A50006F8F4FF0000080F311887047AFF3008044
:103A60007000002000BF00BF08480068006880F3B5
:103A700008884FF0000080F3148862B661B6BFF387
:103A80004F8FBFF36F8F00DF00BF00BF08ED00E076
:103A900080B586B000AF474B1B68474A93420BD1B5
:103AA0004FF0500383F31188BFF36F8FBFF34F8F35
:103AB000FB6000BF00BFFDE73E4B1B683F4A9342DF
:103AC0000BD14FF0500383F31188BFF36F8FBFF317
:103AD0004F8F3B6100BF00BFFDE7394B7B617B69C6
:103AE0001B78DBB27B607B69FF221A707B691B78D5
:103AF000DBB2FB70FB78DBB203F05003DAB2314B80
:103B00001A70314B07221A6009E02F4B1B68013BEA
:103B10002D4A1360FB78DBB25B00DBB2FB70FB78F5
:103B2000DBB203F08003802BEFD0274B1B68C3F17F
:103B30000703042B0BD04FF0500383F31188BFF31E
:103B40006F8FBFF34F8FBB6000BF00BFFDE71E4B01
:103B50001B681B021C4A13601B4B1B6803F4E063C9
:103B6000194A13607B68DAB27B691A70174B1B68BD
:103B7000164A43F470031360144B1B68134A43F056
:103B80007043136000F0DAF8114B00221A6000F065
:103B9000F9F8104B1B680F4A43F040431360FFF7DE
:103BA00063FFFEF7EFFCFFF71BFF002318461837F3
:103BB000BD4680BD00ED00E071C20F4170C20F41F3
:103BC00000E400E0784900207C49002020ED00E07E
:103BD0000C00002034EF00E080B483B000AF4FF061
:103BE000500383F31188BFF36F8FBFF34F8F7B6058
:103BF00000BF104B1B6801330E4A13600D4B1B684E
:103C0000012B10D10C4B1B68DBB2002B0BD04FF0FB
:103C1000500383F31188BFF36F8FBFF34F8F3B6067
:103C200000BF00BFFDE700BF0C37BD465DF8047B59
:103C3000704700BF0C00002004ED00E080B483B0AA
:103C400000AF124B1B68002B0BD14FF0500383F3D6
:103C50001188BFF36F8FBFF34F8F7B6000BF00BF32
:103C6000FDE70A4B1B68013B084A1360074B1B68C2
:103C7000002B05D100233B603B6883F3118800BF14
:103C800000BF0C37BD465DF8047B70470C00002078
:103C9000EFF30980BFF36F8F154B1A681EF0100FFA
:103CA00008BF20ED108A20E9F04F10602DE90900CF
:103CB0004FF0500080F31188BFF34F8FBFF36F8F29
:103CC000FEF760FC4FF0000080F3118809BC196812
:103CD0000868B0E8F04F1EF0100F08BFB0EC108A73
:103CE00080F30988BFF36F8F704700BFAFF3008088
:103CF0007000002000BF00BF80B582B000AF4FF061
:103D0000500383F31188BFF36F8FBFF34F8F7B6036
:103D100000BFFEF77DFB0346002B03D0064B4FF0A0
:103D200080521A6000233B603B6883F3118800BF18
:103D300000BF0837BD4680BD04ED00E080B400AF91
:103D40000B4B00221A600B4B00221A600A4B1B68B7
:103D50000A4AA2FB03239B09094A013B1360044B57
:103D600007221A6000BFBD465DF8047B704700BFA4
:103D700010E000E018E000E000000020D34D6210E9
:103D800014E000E0DFF80C00016841F4700101600C
:103D9000704700BF88ED00E080B485B000AFEFF35E
:103DA0000583FB60FB680F2B15D9184AFB68134489
:103DB0001B78FB72164B1B78FA7A9A420BD24FF0A3
:103DC000500383F31188BFF36F8FBFF34F8F7B6076
:103DD00000BF00BFFDE70F4B1B6803F4E0620E4B12
:103DE0001B689A420BD94FF0500383F31188BFF33D
:103DF0006F8FBFF34F8F3B6000BF00BFFDE700BF79
:103E00001437BD465DF8047B704700BFF0E300E067
:103E1000784900200CED00E07C49002080B500AF1F
:103E2000FDF7D6F900F00AF800F078F8FFF78AFA03
:103E300000F0B8F8FFF7AAFA00BFFDE780B594B02C
:103E400000AF07F12003302200211846FCF7BAF931
:103E500007F10C0300221A605A609A60DA601A6156
:103E60000023BB60284B1B6C274A43F0805313642C
:103E7000254B1B6C03F08053BB60BB6800237B6049
:103E8000224B1B68214A43F4804313601F4B1B687D
:103E900003F480437B607B6802233B620123FB6267
:103EA00010233B630223BB630023FB6308233B64B3
:103EB000A8237B640223BB640423FB6407F1200373
:103EC0001846FCF7C5FA0346002B01D000F020F895
:103ED0000F23FB6002233B6100237B614FF4A0535F
:103EE000BB614FF48053FB6107F10C0305211846B9
:103EF000FCF726FD0346002B01D000F009F800BFB7
:103F00005037BD4680BD00BF003802400070004001
:103F100080B400AF72B600BF00BFFDE780B588B0C7
:103F200000AF07F10C0300221A605A609A60DA6051
:103F30001A610023BB60194B1B6B184A43F0010345
:103F40001363164B1B6B03F00103BB60BB680023BC
:103F50007B60124B1B6B114A43F0800313630F4BC2
:103F60001B6B03F080037B607B6801224FF4E05100
:103F70000B48FDF72DF84FF4E053FB6001233B6144
:103F800000237B610323BB6107F10C03194604483E
:103F9000FCF782FE00BF2037BD4680BD00380240DE
:103FA000001C024080B500AF044A00210448FFF71E
:103FB00013FA0346034A136000BF80BDC0430008E4
:103FC000C93F00088049002080B582B000AF78600A
:103FD0000120FFF793FAFBE780B400AF00BFFDE7D5
:103FE00080B400AF00BFFDE780B400AF00BFFDE7C5
:103FF00080B400AF00BFFDE780B400AF00BFFDE7B5
:1040000080B400AF00BFBD465DF8047B704780B54B
:1040100000AFFDF72FF9FEF725FD0346012B01D078
:10402000FFF76AFE00BF80BD80B582B000AF0023FD
:104030007B60124B5B6C114A43F4804353640F4B1B
:104040005B6C03F480437B607B6800233B600B4B1D
:104050001B6C0A4A43F080531364084B1B6C03F03B
:1040600080533B603B6800220F216FF00100FDF799
:1040700086F800BF0837BD4680BD00BF003802404B
:10408000DFF834D0FCF7D2F90C480D490D4A002373
:1040900002E0D458C4500433C4188C42F9D30A4AFD
:1040A0000A4C002301E013600432A242FBD3FCF768
:1040B000DBF8FFF7B3FE704700000220000000208D
:1040C00010000020F4430008100000208449002064
:1040D000FEE72DE9F04786468C460846089E1546C1
:1040E00074461946002B40F0C2808542B2FA82F233
:1040F00045D94AB1C2F1200300FA02FC2EFA03F3BB
:10410000954043EA0C0C94404FEA154EA8B2BCFB14
:10411000FEF8230C0EFB18CC08FB00F943EA0C4315
:10412000994528D9EB1808F1FF3704D2994502D9EF
:10413000A8F102072B44A3EB0903A4B2B3FBFEFCD6
:104140000EFB1C330CFB00F044EA0344A04214D9DC
:104150002C190CF1FF3304D2A04202D9ACF10203B6
:104160002C44241A43EA07401EB1D4400023346093
:104170007360BDE8F0874746DDE76346F1E792BB31
:10418000431B01214FEA154EAFB2B3FBFEFC200CDE
:104190000EFB1C330CFB07F840EA0343984562D939
:1041A000EB180CF1FF3004D2984502D9ACF10200B3
:1041B0002B44A3EB0803A4B2B3FBFEFC0EFB1C33A1
:1041C0000CFB07F744EA0344A7424ED92C190CF123
:1041D000FF3304D2A74202D9ACF102032C44E41B02
:1041E00043EA0040C0E7C2F1200320FA03F1954002
:1041F00090402EFA03F303434FEA154EAFB2B1FBE2
:10420000FEFC0EFB1C10190C0CFB07F841EA0041E8
:10421000884504FA02F422D969180CF1FF3004D25F
:10422000884502D9ACF102002944A1EB08019BB2F8
:10423000B1FBFEFC0EFB1C110CFB07F743EA01432C
:104240009F420ED9EB180CF1FF3104D29F4202D9E4
:10425000ACF102012B44DB1B41EA004192E76046CE
:10426000E3E76146F7E76046A3E76346B7E78342C3
:1042700006D916B9002108467BE7C6E900E0F9E750
:10428000B3FA83F78FB9834201D3724508D8BEEBE6
:10429000020460EB030301209C461EB9002168E77D
:1042A0003846FAE7C6E9004CF8E7C7F1200CBB40F6
:1042B00022FA0CF41C432EFA0CF120FA0CF3B8404D
:1042C00001434FEA14490EFA07F5B3FBF9F81FFA58
:1042D00084FE09FB18300B0C08FB0EFA43EA00437E
:1042E0009A4502FA07F240D9E31808F1FF3004D2E8
:1042F0009A4502D9A8F102002344A3EB0A0389B22C
:10430000B3FBF9F809FB183308FB0EFE41EA034141
:104310008E452CD9611808F1FF3304D28E4502D99D
:10432000A8F10203214443EA0040A0FB0298A1EB5C
:104330000E014145CE46434602D306D14D4504D237
:10434000B9EB020E68EB04030138002EA6D0B5EBE2
:104350000E0261EB030101FA0CFC22FA07F34CEAAE
:104360000303F940C6E9003198E74046C5E74346F4
:10437000D9E70000F8B500BFF8BC08BC9E467047FE
:0C438000F8B500BFF8BC08BC9E467047B2
:10438C0049444C4500000000546D72205376630084
:10439C00546D72510000000064656661756C745454
:1043AC0061736B00000000000000000001020304B8
:1043BC0006070809A44300080000000000000000E4
:1043CC0000000000000000000002000018000000C7
:0843DC000000000000000000D9
:0843E400D4BEFF7F01000000C0
:0443EC0011040008B0
:0443F000ED030008D1
:1043F4000024F4001000000001000000AAAAAAAAE8
:04000005080040812E
:00000001FF
